{
  "transactions": [
    {
      "hash": "0x2902ce23179c1913f41e4467be99005d436a07461479ac8dcbd661f464097343",
      "transactionType": "CALL",
      "contractName": null,
      "contractAddress": "0x2e8ea79dd1b30e66769359cd65e572b6d5a66fa2",
      "function": "doAction(address,uint256,bytes)",
      "arguments": [
        "0x4200000000000000000000000000000000000006",
        "0",
        "0x095ea7b3000000000000000000000000ac4c6e212a361c968f1725b4d055b47e63f80b75ffffffffffffffffffffffffffffffffffffffffffffffffffffffffffffffff"
      ],
      "transaction": {
        "from": "0x7e6ebc13e2703834b2724ca6e8cc85e253a33207",
        "to": "0x2e8ea79dd1b30e66769359cd65e572b6d5a66fa2",
        "gas": "0xb67a",
        "value": "0x0",
        "input": "0x54a0af170000000000000000000000004200000000000000000000000000000000000006000000000000000000000000000000000000000000000000000000000000000000000000000000000000000000000000000000000000000000000000000000600000000000000000000000000000000000000000000000000000000000000044095ea7b3000000000000000000000000ac4c6e212a361c968f1725b4d055b47e63f80b75ffffffffffffffffffffffffffffffffffffffffffffffffffffffffffffffff00000000000000000000000000000000000000000000000000000000",
        "nonce": "0x40",
        "chainId": "0x2105"
      },
      "additionalContracts": [],
      "isFixedGasLimit": false
    }
  ],
  "receipts": [
    {
      "status": "0x1",
      "cumulativeGasUsed": "0x2f65817",
      "logs": [
        {
          "address": "0x4200000000000000000000000000000000000006",
          "topics": [
            "0x8c5be1e5ebec7d5bd14f71427d1e84f3dd0314c0f7b2291e5b200ac8c7c3b925",
            "0x0000000000000000000000002e8ea79dd1b30e66769359cd65e572b6d5a66fa2",
            "0x000000000000000000000000ac4c6e212a361c968f1725b4d055b47e63f80b75"
          ],
          "data": "0xffffffffffffffffffffffffffffffffffffffffffffffffffffffffffffffff",
          "blockHash": "0x50d3c1151eed7e7fb5feb22fe025349d2713ee78984783f5bfdeaac725665ff7",
          "blockNumber": "0x239b087",
          "blockTimestamp": "0x68fdbdf1",
          "transactionHash": "0x2902ce23179c1913f41e4467be99005d436a07461479ac8dcbd661f464097343",
          "transactionIndex": "0x146",
          "logIndex": "0x1ed",
          "removed": false
        }
      ],
      "logsBloom": "0x00000000000000000000000000000000100000000000000000040000000000000000000000020000000000100000000000000000000000000000000000200000000000000000000000000000000000200000000000040000000000000000040000000000000000000000000000000000000000000000000000000000000000000000000000000000000000000000000000000000002000000000000000000000020000000000000000000000000000000000000000000000000000000000000000000000000000000000000000000000000000000000000000000000000000000010000100000000000000000000000000000000000000000000000000000000",
      "type": "0x2",
      "transactionHash": "0x2902ce23179c1913f41e4467be99005d436a07461479ac8dcbd661f464097343",
      "transactionIndex": "0x146",
      "blockHash": "0x50d3c1151eed7e7fb5feb22fe025349d2713ee78984783f5bfdeaac725665ff7",
      "blockNumber": "0x239b087",
      "gasUsed": "0x841d",
      "effectiveGasPrice": "0x9dfacb",
      "from": "0x7e6ebc13e2703834b2724ca6e8cc85e253a33207",
      "to": "0x2e8ea79dd1b30e66769359cd65e572b6d5a66fa2",
      "contractAddress": null,
      "l1BaseFeeScalar": "0x8dd",
      "l1BlobBaseFee": "0x1",
      "l1BlobBaseFeeScalar": "0x101c12",
      "l1Fee": "0x280db599",
      "l1GasPrice": "0x483f5a4",
      "l1GasUsed": "0x6f5"
    }
  ],
  "libraries": [],
  "pending": [],
  "returns": {},
  "timestamp": 1761459697,
  "chain": 8453,
  "commit": null
}