{
  "transactions": [
    {
      "hash": "0xaf48b1333b7f040f6a09d99f57ded89772bb360ded3c5294bc941f5641427b8e",
      "transactionType": "CALL",
      "contractName": null,
      "contractAddress": "0x46ea962ce7dbf5fb659cabb6bbd46eb03effd565",
      "function": "doAction(address,uint256,bytes)",
      "arguments": [
        "0x4200000000000000000000000000000000000006",
        "0",
        "0x095ea7b3000000000000000000000000ac4c6e212a361c968f1725b4d055b47e63f80b75ffffffffffffffffffffffffffffffffffffffffffffffffffffffffffffffff"
      ],
      "transaction": {
        "from": "0x01887a4ab9e3136e4d8c8ae7d038c98006954e3b",
        "to": "0x46ea962ce7dbf5fb659cabb6bbd46eb03effd565",
        "gas": "0x132e6",
        "value": "0x0",
        "input": "0x54a0af170000000000000000000000004200000000000000000000000000000000000006000000000000000000000000000000000000000000000000000000000000000000000000000000000000000000000000000000000000000000000000000000600000000000000000000000000000000000000000000000000000000000000044095ea7b3000000000000000000000000ac4c6e212a361c968f1725b4d055b47e63f80b75ffffffffffffffffffffffffffffffffffffffffffffffffffffffffffffffff00000000000000000000000000000000000000000000000000000000",
        "nonce": "0x35",
        "chainId": "0x2105"
      },
      "additionalContracts": [],
      "isFixedGasLimit": false
    }
  ],
  "receipts": [
    {
      "status": "0x1",
      "cumulativeGasUsed": "0xbe502e",
      "logs": [
        {
          "address": "0x4200000000000000000000000000000000000006",
          "topics": [
            "0x8c5be1e5ebec7d5bd14f71427d1e84f3dd0314c0f7b2291e5b200ac8c7c3b925",
            "0x00000000000000000000000046ea962ce7dbf5fb659cabb6bbd46eb03effd565",
            "0x000000000000000000000000ac4c6e212a361c968f1725b4d055b47e63f80b75"
          ],
          "data": "0xffffffffffffffffffffffffffffffffffffffffffffffffffffffffffffffff",
          "blockHash": "0xad6f70c4fd5a5f63cd6d482f43ec9fc87a28603b7adb81fea79aacc63541f66a",
          "blockNumber": "0x238c316",
          "blockTimestamp": "0x68fbe30f",
          "transactionHash": "0xaf48b1333b7f040f6a09d99f57ded89772bb360ded3c5294bc941f5641427b8e",
          "transactionIndex": "0x64",
          "logIndex": "0xbf",
          "removed": false
        }
      ],
      "logsBloom": "0x00000000000000000000000000000000000000000000000000140000000000000000000000000000000000100000000000000000000000000000000000200000000000000000000000000000000000200000000000000000000000000000040000000000000000000000000000000080000000000000000000000000000000000000000000000000000000000000000000000000002000000000000000000000020000000000000000000000000000000000000000000000000000000000000000800000000000000000000000000000000000000000000000000000000000000010000100000000000000000000000000000000000000000000000000000000",
      "type": "0x2",
      "transactionHash": "0xaf48b1333b7f040f6a09d99f57ded89772bb360ded3c5294bc941f5641427b8e",
      "transactionIndex": "0x64",
      "blockHash": "0xad6f70c4fd5a5f63cd6d482f43ec9fc87a28603b7adb81fea79aacc63541f66a",
      "blockNumber": "0x238c316",
      "gasUsed": "0xd1d9",
      "effectiveGasPrice": "0x844f67",
      "from": "0x01887a4ab9e3136e4d8c8ae7d038c98006954e3b",
      "to": "0x46ea962ce7dbf5fb659cabb6bbd46eb03effd565",
      "contractAddress": null,
      "l1BaseFeeScalar": "0x8dd",
      "l1BlobBaseFee": "0x1",
      "l1BlobBaseFeeScalar": "0x101c12",
      "l1Fee": "0x29e9c4b3",
      "l1GasPrice": "0x53ef6ab",
      "l1GasUsed": "0x6f5"
    }
  ],
  "libraries": [],
  "pending": [],
  "returns": {},
  "timestamp": 1761338126,
  "chain": 8453,
  "commit": null
}