{
  "transactions": [
    {
      "hash": "0xfd20eed8d35ee77520e032d9d258183b7cba03c5caae1426b74d9ec640fdc388",
      "transactionType": "CALL",
      "contractName": null,
      "contractAddress": "0x46ea962ce7dbf5fb659cabb6bbd46eb03effd565",
      "function": "doAction(address,uint256,bytes)",
      "arguments": [
        "0x4200000000000000000000000000000000000006",
        "0",
        "0x095ea7b3000000000000000000000000ac4c6e212a361c968f1725b4d055b47e63f80b75ffffffffffffffffffffffffffffffffffffffffffffffffffffffffffffffff"
      ],
      "transaction": {
        "from": "0x01887a4ab9e3136e4d8c8ae7d038c98006954e3b",
        "to": "0x46ea962ce7dbf5fb659cabb6bbd46eb03effd565",
        "gas": "0xb67a",
        "value": "0x0",
        "input": "0x54a0af170000000000000000000000004200000000000000000000000000000000000006000000000000000000000000000000000000000000000000000000000000000000000000000000000000000000000000000000000000000000000000000000600000000000000000000000000000000000000000000000000000000000000044095ea7b3000000000000000000000000ac4c6e212a361c968f1725b4d055b47e63f80b75ffffffffffffffffffffffffffffffffffffffffffffffffffffffffffffffff00000000000000000000000000000000000000000000000000000000",
        "nonce": "0x37",
        "chainId": "0x2105"
      },
      "additionalContracts": [],
      "isFixedGasLimit": false
    }
  ],
  "receipts": [
    {
      "status": "0x1",
      "cumulativeGasUsed": "0x6c3647",
      "logs": [
        {
          "address": "0x4200000000000000000000000000000000000006",
          "topics": [
            "0x8c5be1e5ebec7d5bd14f71427d1e84f3dd0314c0f7b2291e5b200ac8c7c3b925",
            "0x00000000000000000000000046ea962ce7dbf5fb659cabb6bbd46eb03effd565",
            "0x000000000000000000000000ac4c6e212a361c968f1725b4d055b47e63f80b75"
          ],
          "data": "0xffffffffffffffffffffffffffffffffffffffffffffffffffffffffffffffff",
          "blockHash": "0xc346103e479d04f953046c90bb3eba8232f049860ace10aa606da96ce02babbe",
          "blockNumber": "0x238c345",
          "blockTimestamp": "0x68fbe36d",
          "transactionHash": "0xfd20eed8d35ee77520e032d9d258183b7cba03c5caae1426b74d9ec640fdc388",
          "transactionIndex": "0x39",
          "logIndex": "0x5b",
          "removed": false
        }
      ],
      "logsBloom": "0x00000000000000000000000000000000000000000000000000140000000000000000000000000000000000100000000000000000000000000000000000200000000000000000000000000000000000200000000000000000000000000000040000000000000000000000000000000080000000000000000000000000000000000000000000000000000000000000000000000000002000000000000000000000020000000000000000000000000000000000000000000000000000000000000000800000000000000000000000000000000000000000000000000000000000000010000100000000000000000000000000000000000000000000000000000000",
      "type": "0x2",
      "transactionHash": "0xfd20eed8d35ee77520e032d9d258183b7cba03c5caae1426b74d9ec640fdc388",
      "transactionIndex": "0x39",
      "blockHash": "0xc346103e479d04f953046c90bb3eba8232f049860ace10aa606da96ce02babbe",
      "blockNumber": "0x238c345",
      "gasUsed": "0x841d",
      "effectiveGasPrice": "0x78bf2e",
      "from": "0x01887a4ab9e3136e4d8c8ae7d038c98006954e3b",
      "to": "0x46ea962ce7dbf5fb659cabb6bbd46eb03effd565",
      "contractAddress": null,
      "l1BaseFeeScalar": "0x8dd",
      "l1BlobBaseFee": "0x1",
      "l1BlobBaseFeeScalar": "0x101c12",
      "l1Fee": "0x2d7b8b2c",
      "l1GasPrice": "0x5abd0ca",
      "l1GasUsed": "0x6e7"
    }
  ],
  "libraries": [],
  "pending": [],
  "returns": {},
  "timestamp": 1761338219,
  "chain": 8453,
  "commit": null
}