{
  "transactions": [
    {
      "hash": "0x903d0e81d37fd3413674513ad8d352fe1055ed5a7f3d6a9bdaa2c0169bb6be7c",
      "transactionType": "CALL",
      "contractName": null,
      "contractAddress": "0x2e8ea79dd1b30e66769359cd65e572b6d5a66fa2",
      "function": "doAction(address,uint256,bytes)",
      "arguments": [
        "0x4200000000000000000000000000000000000006",
        "0",
        "0x095ea7b3000000000000000000000000ac4c6e212a361c968f1725b4d055b47e63f80b75ffffffffffffffffffffffffffffffffffffffffffffffffffffffffffffffff"
      ],
      "transaction": {
        "from": "0x7e6ebc13e2703834b2724ca6e8cc85e253a33207",
        "to": "0x2e8ea79dd1b30e66769359cd65e572b6d5a66fa2",
        "gas": "0x132e6",
        "value": "0x0",
        "input": "0x54a0af170000000000000000000000004200000000000000000000000000000000000006000000000000000000000000000000000000000000000000000000000000000000000000000000000000000000000000000000000000000000000000000000600000000000000000000000000000000000000000000000000000000000000044095ea7b3000000000000000000000000ac4c6e212a361c968f1725b4d055b47e63f80b75ffffffffffffffffffffffffffffffffffffffffffffffffffffffffffffffff00000000000000000000000000000000000000000000000000000000",
        "nonce": "0x34",
        "chainId": "0x2105"
      },
      "additionalContracts": [],
      "isFixedGasLimit": false
    }
  ],
  "receipts": [
    {
      "status": "0x1",
      "cumulativeGasUsed": "0x743eb0",
      "logs": [
        {
          "address": "0x4200000000000000000000000000000000000006",
          "topics": [
            "0x8c5be1e5ebec7d5bd14f71427d1e84f3dd0314c0f7b2291e5b200ac8c7c3b925",
            "0x0000000000000000000000002e8ea79dd1b30e66769359cd65e572b6d5a66fa2",
            "0x000000000000000000000000ac4c6e212a361c968f1725b4d055b47e63f80b75"
          ],
          "data": "0xffffffffffffffffffffffffffffffffffffffffffffffffffffffffffffffff",
          "blockHash": "0x26f5157beaec938fc826cd71ff54d28c9f46663cbbb493d00cfaff82ff6c8411",
          "blockNumber": "0x239aacd",
          "blockTimestamp": "0x68fdb27d",
          "transactionHash": "0x903d0e81d37fd3413674513ad8d352fe1055ed5a7f3d6a9bdaa2c0169bb6be7c",
          "transactionIndex": "0x4c",
          "logIndex": "0x4e",
          "removed": false
        }
      ],
      "logsBloom": "0x00000000000000000000000000000000100000000000000000040000000000000000000000020000000000100000000000000000000000000000000000200000000000000000000000000000000000200000000000040000000000000000040000000000000000000000000000000000000000000000000000000000000000000000000000000000000000000000000000000000002000000000000000000000020000000000000000000000000000000000000000000000000000000000000000000000000000000000000000000000000000000000000000000000000000000010000100000000000000000000000000000000000000000000000000000000",
      "type": "0x2",
      "transactionHash": "0x903d0e81d37fd3413674513ad8d352fe1055ed5a7f3d6a9bdaa2c0169bb6be7c",
      "transactionIndex": "0x4c",
      "blockHash": "0x26f5157beaec938fc826cd71ff54d28c9f46663cbbb493d00cfaff82ff6c8411",
      "blockNumber": "0x239aacd",
      "gasUsed": "0xd1d9",
      "effectiveGasPrice": "0xae67f8",
      "from": "0x7e6ebc13e2703834b2724ca6e8cc85e253a33207",
      "to": "0x2e8ea79dd1b30e66769359cd65e572b6d5a66fa2",
      "contractAddress": null,
      "l1BaseFeeScalar": "0x8dd",
      "l1BlobBaseFee": "0x1",
      "l1BlobBaseFeeScalar": "0x101c12",
      "l1Fee": "0x16a8aafa",
      "l1GasPrice": "0x4cf9af8",
      "l1GasUsed": "0x702"
    }
  ],
  "libraries": [],
  "pending": [],
  "returns": {},
  "timestamp": 1761456763,
  "chain": 8453,
  "commit": null
}