{
  "transactions": [
    {
      "hash": "0x7af4375bbc00346598c1a45811c0a46b818360b728228e981e3c22bad01a3a72",
      "transactionType": "CALL",
      "contractName": null,
      "contractAddress": "0x2e8ea79dd1b30e66769359cd65e572b6d5a66fa2",
      "function": "doAction(address,uint256,bytes)",
      "arguments": [
        "0x4200000000000000000000000000000000000006",
        "0",
        "0x095ea7b3000000000000000000000000ac4c6e212a361c968f1725b4d055b47e63f80b75ffffffffffffffffffffffffffffffffffffffffffffffffffffffffffffffff"
      ],
      "transaction": {
        "from": "0x7e6ebc13e2703834b2724ca6e8cc85e253a33207",
        "to": "0x2e8ea79dd1b30e66769359cd65e572b6d5a66fa2",
        "gas": "0xb67a",
        "value": "0x0",
        "input": "0x54a0af170000000000000000000000004200000000000000000000000000000000000006000000000000000000000000000000000000000000000000000000000000000000000000000000000000000000000000000000000000000000000000000000600000000000000000000000000000000000000000000000000000000000000044095ea7b3000000000000000000000000ac4c6e212a361c968f1725b4d055b47e63f80b75ffffffffffffffffffffffffffffffffffffffffffffffffffffffffffffffff00000000000000000000000000000000000000000000000000000000",
        "nonce": "0x3a",
        "chainId": "0x2105"
      },
      "additionalContracts": [],
      "isFixedGasLimit": false
    }
  ],
  "receipts": [
    {
      "status": "0x1",
      "cumulativeGasUsed": "0x1383756",
      "logs": [
        {
          "address": "0x4200000000000000000000000000000000000006",
          "topics": [
            "0x8c5be1e5ebec7d5bd14f71427d1e84f3dd0314c0f7b2291e5b200ac8c7c3b925",
            "0x0000000000000000000000002e8ea79dd1b30e66769359cd65e572b6d5a66fa2",
            "0x000000000000000000000000ac4c6e212a361c968f1725b4d055b47e63f80b75"
          ],
          "data": "0xffffffffffffffffffffffffffffffffffffffffffffffffffffffffffffffff",
          "blockHash": "0x91b2281903880ee53af9637d0d9a3069f3e61be6c631c190e8b5ae1c781717d7",
          "blockNumber": "0x239af07",
          "blockTimestamp": "0x68fdbaf1",
          "transactionHash": "0x7af4375bbc00346598c1a45811c0a46b818360b728228e981e3c22bad01a3a72",
          "transactionIndex": "0x86",
          "logIndex": "0x1c6",
          "removed": false
        }
      ],
      "logsBloom": "0x00000000000000000000000000000000100000000000000000040000000000000000000000020000000000100000000000000000000000000000000000200000000000000000000000000000000000200000000000040000000000000000040000000000000000000000000000000000000000000000000000000000000000000000000000000000000000000000000000000000002000000000000000000000020000000000000000000000000000000000000000000000000000000000000000000000000000000000000000000000000000000000000000000000000000000010000100000000000000000000000000000000000000000000000000000000",
      "type": "0x2",
      "transactionHash": "0x7af4375bbc00346598c1a45811c0a46b818360b728228e981e3c22bad01a3a72",
      "transactionIndex": "0x86",
      "blockHash": "0x91b2281903880ee53af9637d0d9a3069f3e61be6c631c190e8b5ae1c781717d7",
      "blockNumber": "0x239af07",
      "gasUsed": "0x841d",
      "effectiveGasPrice": "0xf06b11",
      "from": "0x7e6ebc13e2703834b2724ca6e8cc85e253a33207",
      "to": "0x2e8ea79dd1b30e66769359cd65e572b6d5a66fa2",
      "contractAddress": null,
      "l1BaseFeeScalar": "0x8dd",
      "l1BlobBaseFee": "0x1",
      "l1BlobBaseFeeScalar": "0x101c12",
      "l1Fee": "0x149ff2b5",
      "l1GasPrice": "0x452c5d7",
      "l1GasUsed": "0x6f5"
    }
  ],
  "libraries": [],
  "pending": [],
  "returns": {},
  "timestamp": 1761458928,
  "chain": 8453,
  "commit": null
}