{
  "transactions": [
    {
      "hash": "0xaa417e41424ab499d93e6e56ebfe29d0917e10d8776456f1645ea52d9f9371af",
      "transactionType": "CALL",
      "contractName": null,
      "contractAddress": "0x2e8ea79dd1b30e66769359cd65e572b6d5a66fa2",
      "function": "doAction(address,uint256,bytes)",
      "arguments": [
        "0x4200000000000000000000000000000000000006",
        "0",
        "0x095ea7b3000000000000000000000000dd7d0c8d49e3f787e63234e210546260246b2443ffffffffffffffffffffffffffffffffffffffffffffffffffffffffffffffff"
      ],
      "transaction": {
        "from": "0x7e6ebc13e2703834b2724ca6e8cc85e253a33207",
        "to": "0x2e8ea79dd1b30e66769359cd65e572b6d5a66fa2",
        "gas": "0x132e6",
        "value": "0x0",
        "input": "0x54a0af170000000000000000000000004200000000000000000000000000000000000006000000000000000000000000000000000000000000000000000000000000000000000000000000000000000000000000000000000000000000000000000000600000000000000000000000000000000000000000000000000000000000000044095ea7b3000000000000000000000000dd7d0c8d49e3f787e63234e210546260246b2443ffffffffffffffffffffffffffffffffffffffffffffffffffffffffffffffff00000000000000000000000000000000000000000000000000000000",
        "nonce": "0x4a",
        "chainId": "0x2105"
      },
      "additionalContracts": [],
      "isFixedGasLimit": false
    }
  ],
  "receipts": [
    {
      "status": "0x1",
      "cumulativeGasUsed": "0x69cd38",
      "logs": [
        {
          "address": "0x4200000000000000000000000000000000000006",
          "topics": [
            "0x8c5be1e5ebec7d5bd14f71427d1e84f3dd0314c0f7b2291e5b200ac8c7c3b925",
            "0x0000000000000000000000002e8ea79dd1b30e66769359cd65e572b6d5a66fa2",
            "0x000000000000000000000000dd7d0c8d49e3f787e63234e210546260246b2443"
          ],
          "data": "0xffffffffffffffffffffffffffffffffffffffffffffffffffffffffffffffff",
          "blockHash": "0xdd11c9e1b92643dd7a628a5523b68bad49467472334d9c091e21838ecaea464b",
          "blockNumber": "0x23a5766",
          "blockTimestamp": "0x68ff0baf",
          "transactionHash": "0xaa417e41424ab499d93e6e56ebfe29d0917e10d8776456f1645ea52d9f9371af",
          "transactionIndex": "0x30",
          "logIndex": "0x55",
          "removed": false
        }
      ],
      "logsBloom": "0x00000000000000000000000000000000100000000000000000040000000000000000000000020000000000100000000000000000000000000080000000200000000000000000000000000000000000000000000000040000000000000000020000000000000000000000000000000000008000000000000000000000000000000000000000000000000000000000000000000000002000000000000000000000020000000000000000000000000000000000000000000000000000000000000000000000000000000000000000000000000000000000000000000000000000000010000000000000000000000000000000000000000000000000000000000000",
      "type": "0x2",
      "transactionHash": "0xaa417e41424ab499d93e6e56ebfe29d0917e10d8776456f1645ea52d9f9371af",
      "transactionIndex": "0x30",
      "blockHash": "0xdd11c9e1b92643dd7a628a5523b68bad49467472334d9c091e21838ecaea464b",
      "blockNumber": "0x23a5766",
      "gasUsed": "0xd1d9",
      "effectiveGasPrice": "0xa7d27d",
      "from": "0x7e6ebc13e2703834b2724ca6e8cc85e253a33207",
      "to": "0x2e8ea79dd1b30e66769359cd65e572b6d5a66fa2",
      "contractAddress": null,
      "l1BaseFeeScalar": "0x8dd",
      "l1BlobBaseFee": "0x1",
      "l1BlobBaseFeeScalar": "0x101c12",
      "l1Fee": "0x2265e832",
      "l1GasPrice": "0x6f1f828",
      "l1GasUsed": "0x702"
    }
  ],
  "libraries": [],
  "pending": [],
  "returns": {},
  "timestamp": 1761545135,
  "chain": 8453,
  "commit": null
}