{
  "transactions": [
    {
      "hash": "0xfc262d3637ac0089c6c85841873ecefad1a9663d54a2dc99e5c38e73326d266c",
      "transactionType": "CALL",
      "contractName": null,
      "contractAddress": "0x2e8ea79dd1b30e66769359cd65e572b6d5a66fa2",
      "function": "setTrusted(address,bool)",
      "arguments": [
        "0x5770C2E1fEc8a8a43012dFa5203d6844a2849bfa",
        "true"
      ],
      "transaction": {
        "from": "0x7e6ebc13e2703834b2724ca6e8cc85e253a33207",
        "to": "0x2e8ea79dd1b30e66769359cd65e572b6d5a66fa2",
        "gas": "0x10484",
        "value": "0x0",
        "input": "0xf32a12ac0000000000000000000000005770c2e1fec8a8a43012dfa5203d6844a2849bfa0000000000000000000000000000000000000000000000000000000000000001",
        "nonce": "0x53",
        "chainId": "0x2105"
      },
      "additionalContracts": [],
      "isFixedGasLimit": false
    }
  ],
  "receipts": [
    {
      "status": "0x1",
      "cumulativeGasUsed": "0x6c2c9e",
      "logs": [
        {
          "address": "0x2e8ea79dd1b30e66769359cd65e572b6d5a66fa2",
          "topics": [
            "0x878d105ed19c01e992a54459c2f04ba19432ac45600b42ce340d034272207436",
            "0x0000000000000000000000005770c2e1fec8a8a43012dfa5203d6844a2849bfa"
          ],
          "data": "0x0000000000000000000000000000000000000000000000000000000000000001",
          "blockHash": "0xfbfd9eeae01b3c9d30a90c3d9b6f313082ef1aaa263b35e35899e85366fcb463",
          "blockNumber": "0x23a5920",
          "blockTimestamp": "0x68ff0f23",
          "transactionHash": "0xfc262d3637ac0089c6c85841873ecefad1a9663d54a2dc99e5c38e73326d266c",
          "transactionIndex": "0x21",
          "logIndex": "0x4a",
          "removed": false
        }
      ],
      "logsBloom": "0x00000000000000000000000000000000000000000000000000200000000000000000000000000000000000000000000000000000000000000000000000000000000000000000000000000000000000000000000000000000000002000000000000000000000000000000000000000010000000000000000000000000000000000000080000000000000040000000000000000000000000000000000000000000000000000000000000000000000000000000000000000000000000000000000000000000000000000000000000000000000000000020000000000000000000000000000000000000200000000000000000000000000200000800000000000000",
      "type": "0x2",
      "transactionHash": "0xfc262d3637ac0089c6c85841873ecefad1a9663d54a2dc99e5c38e73326d266c",
      "transactionIndex": "0x21",
      "blockHash": "0xfbfd9eeae01b3c9d30a90c3d9b6f313082ef1aaa263b35e35899e85366fcb463",
      "blockNumber": "0x23a5920",
      "gasUsed": "0xbc9d",
      "effectiveGasPrice": "0xa26741",
      "from": "0x7e6ebc13e2703834b2724ca6e8cc85e253a33207",
      "to": "0x2e8ea79dd1b30e66769359cd65e572b6d5a66fa2",
      "contractAddress": null,
      "l1BaseFeeScalar": "0x8dd",
      "l1BlobBaseFee": "0x1",
      "l1BlobBaseFeeScalar": "0x101c12",
      "l1Fee": "0x1c093f62",
      "l1GasPrice": "0x5ea1eae",
      "l1GasUsed": "0x640"
    }
  ],
  "libraries": [],
  "pending": [],
  "returns": {},
  "timestamp": 1761546017,
  "chain": 8453,
  "commit": null
}