{
  "transactions": [
    {
      "hash": "0x1b4c12ec56783b83483b59d29e18c392aa7eb69940e2e5d610a641be68f6304b",
      "transactionType": "CALL",
      "contractName": null,
      "contractAddress": "0x2e8ea79dd1b30e66769359cd65e572b6d5a66fa2",
      "function": "setTrusted(address,bool)",
      "arguments": [
        "0x22677Dae0E0B7f4c1a01b557423D828DA4271917",
        "true"
      ],
      "transaction": {
        "from": "0x7e6ebc13e2703834b2724ca6e8cc85e253a33207",
        "to": "0x2e8ea79dd1b30e66769359cd65e572b6d5a66fa2",
        "gas": "0x10484",
        "value": "0x0",
        "input": "0xf32a12ac00000000000000000000000022677dae0e0b7f4c1a01b557423d828da42719170000000000000000000000000000000000000000000000000000000000000001",
        "nonce": "0x87",
        "chainId": "0x2105"
      },
      "additionalContracts": [],
      "isFixedGasLimit": false
    }
  ],
  "receipts": [
    {
      "status": "0x1",
      "cumulativeGasUsed": "0x165ddd6",
      "logs": [
        {
          "address": "0x2e8ea79dd1b30e66769359cd65e572b6d5a66fa2",
          "topics": [
            "0x878d105ed19c01e992a54459c2f04ba19432ac45600b42ce340d034272207436",
            "0x00000000000000000000000022677dae0e0b7f4c1a01b557423d828da4271917"
          ],
          "data": "0x0000000000000000000000000000000000000000000000000000000000000001",
          "blockHash": "0x5e34c2f7ed6bce1f5e29788c79acc8a74bb80636b0d28611661ecf8d8a9a1d8f",
          "blockNumber": "0x23c10f9",
          "blockTimestamp": "0x69027ed5",
          "transactionHash": "0x1b4c12ec56783b83483b59d29e18c392aa7eb69940e2e5d610a641be68f6304b",
          "transactionIndex": "0x34",
          "logIndex": "0x59",
          "removed": false
        }
      ],
      "logsBloom": "0x00000000000000000000000000000000000000400000000000200000000000000001000000000000000000400000000000000000000000000000000000000000000000000000000000000000000000000000000000000000000002000000000000000000000000000000000000000010000000000000000000000000000000000000000000000000000000000000000000000000000000000000000000000000000000000000000000000000000000000000000000000000000000000000000000000000000000000000000000000000000000000020000000000000000000000000000000000000200000000000000000000000000000000800000000000000",
      "type": "0x2",
      "transactionHash": "0x1b4c12ec56783b83483b59d29e18c392aa7eb69940e2e5d610a641be68f6304b",
      "transactionIndex": "0x34",
      "blockHash": "0x5e34c2f7ed6bce1f5e29788c79acc8a74bb80636b0d28611661ecf8d8a9a1d8f",
      "blockNumber": "0x23c10f9",
      "gasUsed": "0xbc9d",
      "effectiveGasPrice": "0x7cb4d88",
      "from": "0x7e6ebc13e2703834b2724ca6e8cc85e253a33207",
      "to": "0x2e8ea79dd1b30e66769359cd65e572b6d5a66fa2",
      "contractAddress": null,
      "l1BaseFeeScalar": "0x8dd",
      "l1BlobBaseFee": "0x1",
      "l1BlobBaseFeeScalar": "0x101c12",
      "l1Fee": "0x5c5114bb",
      "l1GasPrice": "0x196dc5da",
      "l1GasUsed": "0x640"
    }
  ],
  "libraries": [],
  "pending": [],
  "returns": {},
  "timestamp": 1761771219,
  "chain": 8453,
  "commit": "93a1bba"
}