{
  "transactions": [
    {
      "hash": "0x6549bae8e796589c8e62b5135466ecac6ed9a9579cb61e8b960032b7592a5d28",
      "transactionType": "CALL",
      "contractName": null,
      "contractAddress": "0x2e8ea79dd1b30e66769359cd65e572b6d5a66fa2",
      "function": "setTrusted(address,bool)",
      "arguments": [
        "0x0000000000000000000000000000000000000000",
        "true"
      ],
      "transaction": {
        "from": "0x7e6ebc13e2703834b2724ca6e8cc85e253a33207",
        "to": "0x2e8ea79dd1b30e66769359cd65e572b6d5a66fa2",
        "gas": "0x10339",
        "value": "0x0",
        "input": "0xf32a12ac00000000000000000000000000000000000000000000000000000000000000000000000000000000000000000000000000000000000000000000000000000001",
        "nonce": "0x75",
        "chainId": "0x2105"
      },
      "additionalContracts": [],
      "isFixedGasLimit": false
    }
  ],
  "receipts": [
    {
      "status": "0x1",
      "cumulativeGasUsed": "0xd1e79e",
      "logs": [
        {
          "address": "0x2e8ea79dd1b30e66769359cd65e572b6d5a66fa2",
          "topics": [
            "0x878d105ed19c01e992a54459c2f04ba19432ac45600b42ce340d034272207436",
            "0x0000000000000000000000000000000000000000000000000000000000000000"
          ],
          "data": "0x0000000000000000000000000000000000000000000000000000000000000001",
          "blockHash": "0x7a55a09d2bb1f3f5002bebd4c42bc5e23c2f1ff0f13461063e1524843ab04657",
          "blockNumber": "0x23c03fb",
          "blockTimestamp": "0x690264d9",
          "transactionHash": "0x6549bae8e796589c8e62b5135466ecac6ed9a9579cb61e8b960032b7592a5d28",
          "transactionIndex": "0x5c",
          "logIndex": "0x113",
          "removed": false
        }
      ],
      "logsBloom": "0x00000000000000000000000000000000000000000000000000200000000000000000000000000000000000000000000000000000000000000000000000000000000000000000000000000000000000000000000000000000000002000000000000000000020000000000000000000810000000000000000000000000000000000000000000000000000000000000000000000000000000000000000000000000000000000000000000000000000000000000000000000000000000000000000000000000000000000000000000000000000000000020000000000000000020000000000000000000200000000000000000000000000000000800000000000000",
      "type": "0x2",
      "transactionHash": "0x6549bae8e796589c8e62b5135466ecac6ed9a9579cb61e8b960032b7592a5d28",
      "transactionIndex": "0x5c",
      "blockHash": "0x7a55a09d2bb1f3f5002bebd4c42bc5e23c2f1ff0f13461063e1524843ab04657",
      "blockNumber": "0x23c03fb",
      "gasUsed": "0xbbad",
      "effectiveGasPrice": "0x20cd311",
      "from": "0x7e6ebc13e2703834b2724ca6e8cc85e253a33207",
      "to": "0x2e8ea79dd1b30e66769359cd65e572b6d5a66fa2",
      "contractAddress": null,
      "l1BaseFeeScalar": "0x8dd",
      "l1BlobBaseFee": "0x1",
      "l1BlobBaseFeeScalar": "0x101c12",
      "l1Fee": "0x25ccd1713",
      "l1GasPrice": "0xa697f125",
      "l1GasUsed": "0x640"
    }
  ],
  "libraries": [],
  "pending": [],
  "returns": {},
  "timestamp": 1761764568,
  "chain": 8453,
  "commit": "93a1bba"
}