{
  "transactions": [
    {
      "hash": "0x14251d3d5abb75984a1fe61fa02676f996f0cc63fc5f7fc682344244e928bd29",
      "transactionType": "CALL",
      "contractName": null,
      "contractAddress": "0x2e8ea79dd1b30e66769359cd65e572b6d5a66fa2",
      "function": "setTrusted(address,bool)",
      "arguments": [
        "0x0000000000000000000000000000000000000000",
        "true"
      ],
      "transaction": {
        "from": "0x7e6ebc13e2703834b2724ca6e8cc85e253a33207",
        "to": "0x2e8ea79dd1b30e66769359cd65e572b6d5a66fa2",
        "gas": "0xa0c9",
        "value": "0x0",
        "input": "0xf32a12ac00000000000000000000000000000000000000000000000000000000000000000000000000000000000000000000000000000000000000000000000000000001",
        "nonce": "0x86",
        "chainId": "0x2105"
      },
      "additionalContracts": [],
      "isFixedGasLimit": false
    }
  ],
  "receipts": [
    {
      "status": "0x1",
      "cumulativeGasUsed": "0x91ed0d",
      "logs": [
        {
          "address": "0x2e8ea79dd1b30e66769359cd65e572b6d5a66fa2",
          "topics": [
            "0x878d105ed19c01e992a54459c2f04ba19432ac45600b42ce340d034272207436",
            "0x0000000000000000000000000000000000000000000000000000000000000000"
          ],
          "data": "0x0000000000000000000000000000000000000000000000000000000000000001",
          "blockHash": "0x698badbc58ebe8a4919e94d031089ecbaa4f6cb8adce965e1ec8eae8e4f53c63",
          "blockNumber": "0x23c10eb",
          "blockTimestamp": "0x69027eb9",
          "transactionHash": "0x14251d3d5abb75984a1fe61fa02676f996f0cc63fc5f7fc682344244e928bd29",
          "transactionIndex": "0x1a",
          "logIndex": "0x2c",
          "removed": false
        }
      ],
      "logsBloom": "0x00000000000000000000000000000000000000000000000000200000000000000000000000000000000000000000000000000000000000000000000000000000000000000000000000000000000000000000000000000000000002000000000000000000020000000000000000000810000000000000000000000000000000000000000000000000000000000000000000000000000000000000000000000000000000000000000000000000000000000000000000000000000000000000000000000000000000000000000000000000000000000020000000000000000020000000000000000000200000000000000000000000000000000800000000000000",
      "type": "0x2",
      "transactionHash": "0x14251d3d5abb75984a1fe61fa02676f996f0cc63fc5f7fc682344244e928bd29",
      "transactionIndex": "0x1a",
      "blockHash": "0x698badbc58ebe8a4919e94d031089ecbaa4f6cb8adce965e1ec8eae8e4f53c63",
      "blockNumber": "0x23c10eb",
      "gasUsed": "0x6df1",
      "effectiveGasPrice": "0x6e34af4",
      "from": "0x7e6ebc13e2703834b2724ca6e8cc85e253a33207",
      "to": "0x2e8ea79dd1b30e66769359cd65e572b6d5a66fa2",
      "contractAddress": null,
      "l1BaseFeeScalar": "0x8dd",
      "l1BlobBaseFee": "0x1",
      "l1BlobBaseFeeScalar": "0x101c12",
      "l1Fee": "0x8fdb7d02",
      "l1GasPrice": "0x18ca2cb1",
      "l1GasUsed": "0x640"
    }
  ],
  "libraries": [],
  "pending": [],
  "returns": {},
  "timestamp": 1761771191,
  "chain": 8453,
  "commit": "93a1bba"
}