{
  "transactions": [
    {
      "hash": "0x27686a88d96ac4dd33c4166f7a91be63ae23634270f5b86b3c9228cd9680e24f",
      "transactionType": "CALL",
      "contractName": null,
      "contractAddress": "0x2e8ea79dd1b30e66769359cd65e572b6d5a66fa2",
      "function": "setTrusted(address,bool)",
      "arguments": [
        "0x0000000000000000000000000000000000000000",
        "true"
      ],
      "transaction": {
        "from": "0x7e6ebc13e2703834b2724ca6e8cc85e253a33207",
        "to": "0x2e8ea79dd1b30e66769359cd65e572b6d5a66fa2",
        "gas": "0xa0c9",
        "value": "0x0",
        "input": "0xf32a12ac00000000000000000000000000000000000000000000000000000000000000000000000000000000000000000000000000000000000000000000000000000001",
        "nonce": "0x7c",
        "chainId": "0x2105"
      },
      "additionalContracts": [],
      "isFixedGasLimit": false
    }
  ],
  "receipts": [
    {
      "status": "0x1",
      "cumulativeGasUsed": "0x1884892",
      "logs": [
        {
          "address": "0x2e8ea79dd1b30e66769359cd65e572b6d5a66fa2",
          "topics": [
            "0x878d105ed19c01e992a54459c2f04ba19432ac45600b42ce340d034272207436",
            "0x0000000000000000000000000000000000000000000000000000000000000000"
          ],
          "data": "0x0000000000000000000000000000000000000000000000000000000000000001",
          "blockHash": "0x23d082fa0bd92f8932270ba933393e496e17167bd9c38b88dbb7c81c38ef868c",
          "blockNumber": "0x23c0aa9",
          "blockTimestamp": "0x69027235",
          "transactionHash": "0x27686a88d96ac4dd33c4166f7a91be63ae23634270f5b86b3c9228cd9680e24f",
          "transactionIndex": "0x91",
          "logIndex": "0x203",
          "removed": false
        }
      ],
      "logsBloom": "0x00000000000000000000000000000000000000000000000000200000000000000000000000000000000000000000000000000000000000000000000000000000000000000000000000000000000000000000000000000000000002000000000000000000020000000000000000000810000000000000000000000000000000000000000000000000000000000000000000000000000000000000000000000000000000000000000000000000000000000000000000000000000000000000000000000000000000000000000000000000000000000020000000000000000020000000000000000000200000000000000000000000000000000800000000000000",
      "type": "0x2",
      "transactionHash": "0x27686a88d96ac4dd33c4166f7a91be63ae23634270f5b86b3c9228cd9680e24f",
      "transactionIndex": "0x91",
      "blockHash": "0x23d082fa0bd92f8932270ba933393e496e17167bd9c38b88dbb7c81c38ef868c",
      "blockNumber": "0x23c0aa9",
      "gasUsed": "0x6df1",
      "effectiveGasPrice": "0x844e0b",
      "from": "0x7e6ebc13e2703834b2724ca6e8cc85e253a33207",
      "to": "0x2e8ea79dd1b30e66769359cd65e572b6d5a66fa2",
      "contractAddress": null,
      "l1BaseFeeScalar": "0x8dd",
      "l1BlobBaseFee": "0x1",
      "l1BlobBaseFeeScalar": "0x101c12",
      "l1Fee": "0x7bb3cfaa",
      "l1GasPrice": "0x2212f40a",
      "l1GasUsed": "0x640"
    }
  ],
  "libraries": [],
  "pending": [],
  "returns": {},
  "timestamp": 1761767989,
  "chain": 8453,
  "commit": "93a1bba"
}