{
  "transactions": [
    {
      "hash": "0x089583e242064d171f0d5c0f951258d4e485db8ce8278a869f2b8bfe2addc774",
      "transactionType": "CALL",
      "contractName": null,
      "contractAddress": "0x46ea962ce7dbf5fb659cabb6bbd46eb03effd565",
      "function": "setTrusted(address,bool)",
      "arguments": [
        "0x2635aD5Ee1d5C9071e189C3a178346d57b62a05c",
        "true"
      ],
      "transaction": {
        "from": "0x01887a4ab9e3136e4d8c8ae7d038c98006954e3b",
        "to": "0x46ea962ce7dbf5fb659cabb6bbd46eb03effd565",
        "gas": "0x10484",
        "value": "0x0",
        "input": "0xf32a12ac0000000000000000000000002635ad5ee1d5c9071e189c3a178346d57b62a05c0000000000000000000000000000000000000000000000000000000000000001",
        "nonce": "0x32",
        "chainId": "0x2105"
      },
      "additionalContracts": [],
      "isFixedGasLimit": false
    }
  ],
  "receipts": [
    {
      "status": "0x1",
      "cumulativeGasUsed": "0x1387cab",
      "logs": [
        {
          "address": "0x46ea962ce7dbf5fb659cabb6bbd46eb03effd565",
          "topics": [
            "0x878d105ed19c01e992a54459c2f04ba19432ac45600b42ce340d034272207436",
            "0x0000000000000000000000002635ad5ee1d5c9071e189c3a178346d57b62a05c"
          ],
          "data": "0x0000000000000000000000000000000000000000000000000000000000000001",
          "blockHash": "0xbd2426bf1711a9a48b4e2d744f058846c247221059bdaff4e3eae88719f40778",
          "blockNumber": "0x238c153",
          "blockTimestamp": "0x68fbdf89",
          "transactionHash": "0x089583e242064d171f0d5c0f951258d4e485db8ce8278a869f2b8bfe2addc774",
          "transactionIndex": "0xc0",
          "logIndex": "0xcd",
          "removed": false
        }
      ],
      "logsBloom": "0x00000000000000000000000000000000000004000000000000200000000000000000000000000000000000000000000000000000000000000000000000000000000000000000000000000000000000000000000000000000000002000000000000000000000000000000000000000000000000000000000000010000000000000000000000000000000000000000000000000000000000000000000000000000000000000000000000000000080000000000000000000000000000000000000000000000000000000000000000000000000000000020000000020000000000002000000000000000000000000000000000000000000000000000000000000400",
      "type": "0x2",
      "transactionHash": "0x089583e242064d171f0d5c0f951258d4e485db8ce8278a869f2b8bfe2addc774",
      "transactionIndex": "0xc0",
      "blockHash": "0xbd2426bf1711a9a48b4e2d744f058846c247221059bdaff4e3eae88719f40778",
      "blockNumber": "0x238c153",
      "gasUsed": "0xbc9d",
      "effectiveGasPrice": "0xacccb2",
      "from": "0x01887a4ab9e3136e4d8c8ae7d038c98006954e3b",
      "to": "0x46ea962ce7dbf5fb659cabb6bbd46eb03effd565",
      "contractAddress": null,
      "l1BaseFeeScalar": "0x8dd",
      "l1BlobBaseFee": "0x1",
      "l1BlobBaseFeeScalar": "0x101c12",
      "l1Fee": "0x16b1ba6e",
      "l1GasPrice": "0x6404ca0",
      "l1GasUsed": "0x640"
    }
  ],
  "libraries": [],
  "pending": [],
  "returns": {},
  "timestamp": 1761337226,
  "chain": 8453,
  "commit": null
}