{
  "transactions": [
    {
      "hash": "0x705f41b906f0c69c7c769db0df3bf082421e9e413bd4f8e9c216a90e44d85a7a",
      "transactionType": "CALL",
      "contractName": null,
      "contractAddress": "0x2e8ea79dd1b30e66769359cd65e572b6d5a66fa2",
      "function": "setTrusted(address,bool)",
      "arguments": [
        "0x0000000000000000000000000000000000000000",
        "true"
      ],
      "transaction": {
        "from": "0x7e6ebc13e2703834b2724ca6e8cc85e253a33207",
        "to": "0x2e8ea79dd1b30e66769359cd65e572b6d5a66fa2",
        "gas": "0xa0c9",
        "value": "0x0",
        "input": "0xf32a12ac00000000000000000000000000000000000000000000000000000000000000000000000000000000000000000000000000000000000000000000000000000001",
        "nonce": "0x81",
        "chainId": "0x2105"
      },
      "additionalContracts": [],
      "isFixedGasLimit": false
    }
  ],
  "receipts": [
    {
      "status": "0x1",
      "cumulativeGasUsed": "0x29f0795",
      "logs": [
        {
          "address": "0x2e8ea79dd1b30e66769359cd65e572b6d5a66fa2",
          "topics": [
            "0x878d105ed19c01e992a54459c2f04ba19432ac45600b42ce340d034272207436",
            "0x0000000000000000000000000000000000000000000000000000000000000000"
          ],
          "data": "0x0000000000000000000000000000000000000000000000000000000000000001",
          "blockHash": "0x297a48269f6f359540c9e11f41350121121f720106114e0d382955c7228a3586",
          "blockNumber": "0x23c0e5c",
          "blockTimestamp": "0x6902799b",
          "transactionHash": "0x705f41b906f0c69c7c769db0df3bf082421e9e413bd4f8e9c216a90e44d85a7a",
          "transactionIndex": "0x104",
          "logIndex": "0x299",
          "removed": false
        }
      ],
      "logsBloom": "0x00000000000000000000000000000000000000000000000000200000000000000000000000000000000000000000000000000000000000000000000000000000000000000000000000000000000000000000000000000000000002000000000000000000020000000000000000000810000000000000000000000000000000000000000000000000000000000000000000000000000000000000000000000000000000000000000000000000000000000000000000000000000000000000000000000000000000000000000000000000000000000020000000000000000020000000000000000000200000000000000000000000000000000800000000000000",
      "type": "0x2",
      "transactionHash": "0x705f41b906f0c69c7c769db0df3bf082421e9e413bd4f8e9c216a90e44d85a7a",
      "transactionIndex": "0x104",
      "blockHash": "0x297a48269f6f359540c9e11f41350121121f720106114e0d382955c7228a3586",
      "blockNumber": "0x23c0e5c",
      "gasUsed": "0x6df1",
      "effectiveGasPrice": "0x941428",
      "from": "0x7e6ebc13e2703834b2724ca6e8cc85e253a33207",
      "to": "0x2e8ea79dd1b30e66769359cd65e572b6d5a66fa2",
      "contractAddress": null,
      "l1BaseFeeScalar": "0x8dd",
      "l1BlobBaseFee": "0x1",
      "l1BlobBaseFeeScalar": "0x101c12",
      "l1Fee": "0xb95d6849",
      "l1GasPrice": "0x1e3427ac",
      "l1GasUsed": "0x640"
    }
  ],
  "libraries": [],
  "pending": [],
  "returns": {},
  "timestamp": 1761769883,
  "chain": 8453,
  "commit": "93a1bba"
}