{
  "transactions": [
    {
      "hash": "0x55a874992e5ac7907a713a695fc5f75a051f496e0ecedb401ee8d3bf551c5806",
      "transactionType": "CALL",
      "contractName": null,
      "contractAddress": "0x2e8ea79dd1b30e66769359cd65e572b6d5a66fa2",
      "function": "setTrusted(address,bool)",
      "arguments": [
        "0x8e4eeF5E68114B481332eeD86a9548d179cd0b1c",
        "true"
      ],
      "transaction": {
        "from": "0x7e6ebc13e2703834b2724ca6e8cc85e253a33207",
        "to": "0x2e8ea79dd1b30e66769359cd65e572b6d5a66fa2",
        "gas": "0x10484",
        "value": "0x0",
        "input": "0xf32a12ac0000000000000000000000008e4eef5e68114b481332eed86a9548d179cd0b1c0000000000000000000000000000000000000000000000000000000000000001",
        "nonce": "0x3f",
        "chainId": "0x2105"
      },
      "additionalContracts": [],
      "isFixedGasLimit": false
    }
  ],
  "receipts": [
    {
      "status": "0x1",
      "cumulativeGasUsed": "0x306e001",
      "logs": [
        {
          "address": "0x2e8ea79dd1b30e66769359cd65e572b6d5a66fa2",
          "topics": [
            "0x878d105ed19c01e992a54459c2f04ba19432ac45600b42ce340d034272207436",
            "0x0000000000000000000000008e4eef5e68114b481332eed86a9548d179cd0b1c"
          ],
          "data": "0x0000000000000000000000000000000000000000000000000000000000000001",
          "blockHash": "0xa4ad08f58a73f90c6c50b37415aaaea5751ef691546912084d12f66060858c9f",
          "blockNumber": "0x239b081",
          "blockTimestamp": "0x68fdbde5",
          "transactionHash": "0x55a874992e5ac7907a713a695fc5f75a051f496e0ecedb401ee8d3bf551c5806",
          "transactionIndex": "0x115",
          "logIndex": "0x245",
          "removed": false
        }
      ],
      "logsBloom": "0x00000000000000000000000000000000000000000000000000200000000000000000000000000000000000000000000000000000000000000000000000000000000000000000000000000000000000000000000000000000000002000000000000000000000008000000010000000010000000000000000000000000000000000000000000000000000000000000000000000000000000000000000000000000000000000000000000000000000000000000000000000000000000000000000000000000000000000000000000000000000000000020000000000000000000000000000000000000200008000000000000000000000000000800000000000000",
      "type": "0x2",
      "transactionHash": "0x55a874992e5ac7907a713a695fc5f75a051f496e0ecedb401ee8d3bf551c5806",
      "transactionIndex": "0x115",
      "blockHash": "0xa4ad08f58a73f90c6c50b37415aaaea5751ef691546912084d12f66060858c9f",
      "blockNumber": "0x239b081",
      "gasUsed": "0xbc9d",
      "effectiveGasPrice": "0x9d053c",
      "from": "0x7e6ebc13e2703834b2724ca6e8cc85e253a33207",
      "to": "0x2e8ea79dd1b30e66769359cd65e572b6d5a66fa2",
      "contractAddress": null,
      "l1BaseFeeScalar": "0x8dd",
      "l1BlobBaseFee": "0x1",
      "l1BlobBaseFeeScalar": "0x101c12",
      "l1Fee": "0x2421611b",
      "l1GasPrice": "0x4b8308f",
      "l1GasUsed": "0x640"
    }
  ],
  "libraries": [],
  "pending": [],
  "returns": {},
  "timestamp": 1761459685,
  "chain": 8453,
  "commit": null
}