{
  "transactions": [
    {
      "hash": "0x0000f47893fed3fbd67305af5f1a7e353c293fb71eb16c13a3aed172ebb278ce",
      "transactionType": "CALL",
      "contractName": null,
      "contractAddress": "0x2e8ea79dd1b30e66769359cd65e572b6d5a66fa2",
      "function": "setTrusted(address,bool)",
      "arguments": [
        "0x3c5bC3153086eA08b4d018Cd083532a1495DEb05",
        "true"
      ],
      "transaction": {
        "from": "0x7e6ebc13e2703834b2724ca6e8cc85e253a33207",
        "to": "0x2e8ea79dd1b30e66769359cd65e572b6d5a66fa2",
        "gas": "0x10484",
        "value": "0x0",
        "input": "0xf32a12ac0000000000000000000000003c5bc3153086ea08b4d018cd083532a1495deb050000000000000000000000000000000000000000000000000000000000000001",
        "nonce": "0x56",
        "chainId": "0x2105"
      },
      "additionalContracts": [],
      "isFixedGasLimit": false
    }
  ],
  "receipts": [
    {
      "status": "0x1",
      "cumulativeGasUsed": "0x1551fc8",
      "logs": [
        {
          "address": "0x2e8ea79dd1b30e66769359cd65e572b6d5a66fa2",
          "topics": [
            "0x878d105ed19c01e992a54459c2f04ba19432ac45600b42ce340d034272207436",
            "0x0000000000000000000000003c5bc3153086ea08b4d018cd083532a1495deb05"
          ],
          "data": "0x0000000000000000000000000000000000000000000000000000000000000001",
          "blockHash": "0x19f55522cfc7064fdd704df797d43297ecfd7596d20a61a3a3c2aead88f8d953",
          "blockNumber": "0x23a59fe",
          "blockTimestamp": "0x68ff10df",
          "transactionHash": "0x0000f47893fed3fbd67305af5f1a7e353c293fb71eb16c13a3aed172ebb278ce",
          "transactionIndex": "0x95",
          "logIndex": "0x153",
          "removed": false
        }
      ],
      "logsBloom": "0x00000000000000000000000000080000000000000000000000200000000000000000000000000000000000000000000000000000000000000000000020000000000000000000000000100000000000000000000000000000000002000000000000000000000000000000000000000010000000000000000000000000000000000000000000000000000000000000000000000000000000000000000000000000000000000000000000000000000000000000000000000000000000000000000000000000000000000000000000000000000000000020000000000000000000000000000000000000200000000000000000000000000000000800000000000000",
      "type": "0x2",
      "transactionHash": "0x0000f47893fed3fbd67305af5f1a7e353c293fb71eb16c13a3aed172ebb278ce",
      "transactionIndex": "0x95",
      "blockHash": "0x19f55522cfc7064fdd704df797d43297ecfd7596d20a61a3a3c2aead88f8d953",
      "blockNumber": "0x23a59fe",
      "gasUsed": "0xbc9d",
      "effectiveGasPrice": "0xb5d8e1",
      "from": "0x7e6ebc13e2703834b2724ca6e8cc85e253a33207",
      "to": "0x2e8ea79dd1b30e66769359cd65e572b6d5a66fa2",
      "contractAddress": null,
      "l1BaseFeeScalar": "0x8dd",
      "l1BlobBaseFee": "0x1",
      "l1BlobBaseFeeScalar": "0x101c12",
      "l1Fee": "0x28fe7882",
      "l1GasPrice": "0x63f3435",
      "l1GasUsed": "0x640"
    }
  ],
  "libraries": [],
  "pending": [],
  "returns": {},
  "timestamp": 1761546462,
  "chain": 8453,
  "commit": null
}