{
  "transactions": [
    {
      "hash": "0x4186cda8425ad6ca5b3937e6ae1c2718c67b650000c7f92389c36750efd38cfd",
      "transactionType": "CALL",
      "contractName": null,
      "contractAddress": "0x2e8ea79dd1b30e66769359cd65e572b6d5a66fa2",
      "function": "setTrusted(address,bool)",
      "arguments": [
        "0xDd7d0c8d49e3F787E63234e210546260246b2443",
        "true"
      ],
      "transaction": {
        "from": "0x7e6ebc13e2703834b2724ca6e8cc85e253a33207",
        "to": "0x2e8ea79dd1b30e66769359cd65e572b6d5a66fa2",
        "gas": "0x10484",
        "value": "0x0",
        "input": "0xf32a12ac000000000000000000000000dd7d0c8d49e3f787e63234e210546260246b24430000000000000000000000000000000000000000000000000000000000000001",
        "nonce": "0x4b",
        "chainId": "0x2105"
      },
      "additionalContracts": [],
      "isFixedGasLimit": false
    }
  ],
  "receipts": [
    {
      "status": "0x1",
      "cumulativeGasUsed": "0xca82c4",
      "logs": [
        {
          "address": "0x2e8ea79dd1b30e66769359cd65e572b6d5a66fa2",
          "topics": [
            "0x878d105ed19c01e992a54459c2f04ba19432ac45600b42ce340d034272207436",
            "0x000000000000000000000000dd7d0c8d49e3f787e63234e210546260246b2443"
          ],
          "data": "0x0000000000000000000000000000000000000000000000000000000000000001",
          "blockHash": "0xab92a35d8b662f82ee0a54546257da10a9414322e0c2c22e5bdbeb63ceb6604b",
          "blockNumber": "0x23a577a",
          "blockTimestamp": "0x68ff0bd7",
          "transactionHash": "0x4186cda8425ad6ca5b3937e6ae1c2718c67b650000c7f92389c36750efd38cfd",
          "transactionIndex": "0x78",
          "logIndex": "0xa5",
          "removed": false
        }
      ],
      "logsBloom": "0x00000000000000000000000000000000000000000000000000200000000000000000000000000000000000000000000000000000000000000080000000000000000000000000000000000000000000000000000000000000000002000000020000000000000000000000000000000010008000000000000000000000000000000000000000000000000000000000000000000000000000000000000000000000000000000000000000000000000000000000000000000000000000000000000000000000000000000000000000000000000000000020000000000000000000000000000000000000200000000000000000000000000000000800000000000000",
      "type": "0x2",
      "transactionHash": "0x4186cda8425ad6ca5b3937e6ae1c2718c67b650000c7f92389c36750efd38cfd",
      "transactionIndex": "0x78",
      "blockHash": "0xab92a35d8b662f82ee0a54546257da10a9414322e0c2c22e5bdbeb63ceb6604b",
      "blockNumber": "0x23a577a",
      "gasUsed": "0xbc9d",
      "effectiveGasPrice": "0xaa8770",
      "from": "0x7e6ebc13e2703834b2724ca6e8cc85e253a33207",
      "to": "0x2e8ea79dd1b30e66769359cd65e572b6d5a66fa2",
      "contractAddress": null,
      "l1BaseFeeScalar": "0x8dd",
      "l1BlobBaseFee": "0x1",
      "l1BlobBaseFeeScalar": "0x101c12",
      "l1Fee": "0x33278d33",
      "l1GasPrice": "0x6edec62",
      "l1GasUsed": "0x640"
    }
  ],
  "libraries": [],
  "pending": [],
  "returns": {},
  "timestamp": 1761545174,
  "chain": 8453,
  "commit": null
}